:02000000FA29DB
:0A0006000D30FD00FD0B0528080079
:1000100012001E00F003031D0828F103031D082829
:020020000800D6
:1000220020003708003A031D1A28833021009D055D
:10003200232820003708013A031D23288730210096
:100042009D051D15210003209D149D1C292826288D
:100052001C082000B800B9013808F0003908F10086
:02006200080094
:100064004530FD00FD0B34282000370823009A009A
:0E0074009E1C3D283A289E1840283D28080072
:100082002000FB01FA01F901F801A001730DF80D3E
:100092007408F8027508031C750FF9027608031C30
:1000A200760FFA027708031C770FFB020001031C8C
:1000B2000130A002F30D0730FC00730DF80DF90DAD
:1000C200FA0DFB0DA00D7408731C7928F80275084F
:1000D200031C750FF9027608031C760FFA027708E3
:1000E200031C770FFB020001031C0130A0028A28C7
:1000F200F80775080318750FF90776080318760FC5
:10010200FA0777080318770FFB070001031801307D
:10011200A007F30DFC0B5E28720DF80DF90DFA0D18
:10012200FB0DA00D7408731CA828F8027508031CA7
:10013200750FF9027608031C760FFA027708031C82
:10014200770FFB020001031C0130A002B928F80757
:1001520075080318750FF90776080318760FFA0762
:1001620077080318770FFB07000103180130A00777
:10017200F20D0730FC00720DF80DF90DFA0DFB0DB2
:10018200A00D7408721CD728F8027508031C750F9D
:10019200F9027608031C760FFA027708031C770F20
:1001A200FB020001031C0130A002E828F8077508D1
:1001B2000318750FF90776080318760FFA07770800
:1001C2000318770FFB07000103180130A007F20D97
:1001D200FC0BBC28710DF80DF90DFA0DFB0DA00DED
:1001E2007408721C0629F8027508031C750FF902BF
:1001F2007608031C760FFA027708031C770FFB02BE
:100202000001031C0130A0021729F8077508031822
:10021200750FF90776080318760FFA07770803189F
:10022200770FFB07000103180130A007F10D07301B
:10023200FC00710DF80DF90DFA0DFB0DA00D7408FF
:10024200711C3529F8027508031C750FF90276082E
:10025200031C760FFA027708031C770FFB020001DA
:10026200031C0130A0024629F80775080318750F10
:10027200F90776080318760FFA0777080318770F3D
:10028200FB07000103180130A007F10DFC0B1A292E
:10029200700DF80DF90DFA0DFB0DA00D7408711C0F
:1002A2006429F8027508031C750FF9027608031C0D
:1002B200760FFA027708031C770FFB020001031C7A
:1002C2000130A0027529F80775080318750FF907A0
:1002D20076080318760FFA0777080318770FFB07DB
:1002E200000103180130A007F00D0730FC00700D6B
:1002F200F80DF90DFA0DFB0DA00D7408701C932971
:10030200F8027508031C750FF9027608031C760FB4
:10031200FA027708031C770FFB020001031C01306D
:10032200A002A429F80775080318750FF9077608C3
:100332000318760FFA0777080318770FFB070001F7
:1003420003180130A007F00DFC0B78297018B729AB
:100352007408F80775080318750FF907760803186B
:0E036200760FFA0777080318770FFB070800DD
:100370002000FB01FA01F9018030F800F10CF00CCB
:10038000031CCB297408F90775080318750FFA07C1
:100390000318FB0A0310F01FD3297408FA07750825
:1003A0000318750FFB07FB0CFA0CF90CF80C031C77
:1003B000BE297B08F3007A08F2007908F10078087A
:0403C000F000080041
:1003C40020007008F100F0010830FC007108F40C02
:1003D4000318F029FC0BE929F10100340310F52975
:1003E400F40C0318F107F10CF00CFC0BF2290800D3
:1003F4002000A101A2010130A3007830210099005E
:100404000C148C140C158C150C128C1623000C1463
:100414008C140C110C1221001E129E161E131E1099
:100424009E109E131E129E161E131E109E101D1447
:100434000C3023009B009C011E111E129F112200F0
:100444001D1523009D179E1622009D1723001D16BF
:100454002000A401A101A201A901AA01AB01AC01E0
:10046400A501A601A701A801B70111207108003C4C
:10047400031D3E2A7008213C0318412A362A1830ED
:1004840024020318992A00302202031D4B2A323019
:1004940021020318992AB70111207108003C031D99
:1004A400552A7008213C013003180030F20072080C
:1004B400B6007208013A031D932A2308003A031D6B
:1004C400932A0130B70011207108003C031D6C2AE7
:1004D4007008213C013003180030A500A600A700D5
:1004E400A8000030A600A700A8002508F300F0012A
:1004F400F101F2017008A5007108A6007208A700B6
:100504007308A8007008A9077108AA3D7208AB3DDA
:100514007308AC3DAC36AB0CAA0CA90CA101A2012A
:10052400A40AA10A0319A20A3608A300412A24082E
:10053400183A031D682BFF302905F500FF302A0502
:10054400F6000F302B05F70000302C05F800750875
:10055400AE007608AF007708B0007808B10001302B
:100564007505F0007608F1007708F2007808F300CA
:100574000030F105F205F3057008AD007508F000D0
:100584007608F1007708F2007808F300F336F20CED
:10059400F10CF00C7008AE007108AF007208B000E6
:1005A4007308B100E830F4000330F500F601F701F8
:1005B40041207008B2000030F100E830F40003304C
:1005C400F500B8212E08F4002F08F5003008F600D5
:1005D4003108F7007008F4027108F53B0030F11B94
:1005E400FF30F63BF73B7408AE007508AF007608A1
:1005F400B0007708B1007408F0007508F1007608BF
:10060400F2007708F3006430F400F501F601F70115
:1006140041207008B3006430F400E2212E08F40095
:100624002F08F5003008F6003108F7007008F402CE
:100634007108F53B0030F11BFF30F63BF73B7408C3
:10064400AE007508AF007608B0007708B1007408F2
:10065400F0007508F1007608F2007708F3000A301C
:10066400F400F501F601F70141207008B4000A30E6
:10067400F400E2212E08F2002F08F3003008F40001
:100684003108F5007008F2027108F33B0030F11BE9
:10069400FF30F43BF53B7208AE007308AF007408FA
:1006A400B0007508B1007208B5003030B2073030C0
:1006B400B3073030B4073030B5072D08013A031DB5
:1006C400662B3530AD00682B3030AD00911E8B2B7E
:1006D40023001908723A031D8B2B20003208B7003F
:1006E40032202E302000B700322020003308B7001B
:1006F400322020003408B700322020003508B7002B
:10070400322020002D08B70032200A302000B70024
:10071400322023009D1C902B1D121D162A2A912B7A
:020000040001F9
:04000E00A43F1316E2
:00000001FF
